{
  "_format": "hh-sol-artifact-1",
  "contractName": "CyberPunkBoutique",
  "sourceName": "contracts/CyberPunk.sol",
  "abi": [
    {
      "inputs": [],
      "stateMutability": "nonpayable",
      "type": "constructor"
    },
    {
      "anonymous": false,
      "inputs": [
        {
          "indexed": false,
          "internalType": "uint256",
          "name": "id",
          "type": "uint256"
        },
        {
          "indexed": false,
          "internalType": "string",
          "name": "name",
          "type": "string"
        },
        {
          "indexed": false,
          "internalType": "uint256",
          "name": "price",
          "type": "uint256"
        },
        {
          "indexed": false,
          "internalType": "string",
          "name": "cid",
          "type": "string"
        },
        {
          "indexed": false,
          "internalType": "bool",
          "name": "purchased",
          "type": "bool"
        }
      ],
      "name": "ProductCreated",
      "type": "event"
    },
    {
      "anonymous": false,
      "inputs": [
        {
          "indexed": false,
          "internalType": "uint256",
          "name": "id",
          "type": "uint256"
        },
        {
          "indexed": false,
          "internalType": "string",
          "name": "name",
          "type": "string"
        },
        {
          "indexed": false,
          "internalType": "uint256",
          "name": "price",
          "type": "uint256"
        },
        {
          "indexed": false,
          "internalType": "address",
          "name": "buyer",
          "type": "address"
        },
        {
          "indexed": false,
          "internalType": "bool",
          "name": "purchased",
          "type": "bool"
        }
      ],
      "name": "ProductPurchased",
      "type": "event"
    },
    {
      "anonymous": false,
      "inputs": [
        {
          "indexed": false,
          "internalType": "uint256",
          "name": "id",
          "type": "uint256"
        },
        {
          "indexed": false,
          "internalType": "string",
          "name": "trackingNumber",
          "type": "string"
        }
      ],
      "name": "ProductShipped",
      "type": "event"
    },
    {
      "inputs": [
        {
          "internalType": "string",
          "name": "_name",
          "type": "string"
        },
        {
          "internalType": "uint256",
          "name": "_price",
          "type": "uint256"
        },
        {
          "internalType": "string",
          "name": "_cid",
          "type": "string"
        }
      ],
      "name": "createProduct",
      "outputs": [],
      "stateMutability": "nonpayable",
      "type": "function"
    },
    {
      "inputs": [],
      "name": "owner",
      "outputs": [
        {
          "internalType": "address",
          "name": "",
          "type": "address"
        }
      ],
      "stateMutability": "view",
      "type": "function"
    },
    {
      "inputs": [],
      "name": "productCount",
      "outputs": [
        {
          "internalType": "uint256",
          "name": "",
          "type": "uint256"
        }
      ],
      "stateMutability": "view",
      "type": "function"
    },
    {
      "inputs": [
        {
          "internalType": "uint256",
          "name": "",
          "type": "uint256"
        }
      ],
      "name": "products",
      "outputs": [
        {
          "internalType": "uint256",
          "name": "id",
          "type": "uint256"
        },
        {
          "internalType": "string",
          "name": "name",
          "type": "string"
        },
        {
          "internalType": "uint256",
          "name": "price",
          "type": "uint256"
        },
        {
          "internalType": "string",
          "name": "cid",
          "type": "string"
        },
        {
          "internalType": "bool",
          "name": "purchased",
          "type": "bool"
        },
        {
          "internalType": "bool",
          "name": "shipped",
          "type": "bool"
        },
        {
          "internalType": "string",
          "name": "trackingNumber",
          "type": "string"
        }
      ],
      "stateMutability": "view",
      "type": "function"
    },
    {
      "inputs": [
        {
          "internalType": "uint256",
          "name": "_id",
          "type": "uint256"
        }
      ],
      "name": "purchaseProduct",
      "outputs": [],
      "stateMutability": "payable",
      "type": "function"
    },
    {
      "inputs": [
        {
          "internalType": "uint256",
          "name": "_id",
          "type": "uint256"
        },
        {
          "internalType": "string",
          "name": "_trackingNumber",
          "type": "string"
        }
      ],
      "name": "shipProduct",
      "outputs": [],
      "stateMutability": "nonpayable",
      "type": "function"
    }
  ],
  "bytecode": "0x60806040526000600155348015601457600080fd5b50336000806101000a81548173ffffffffffffffffffffffffffffffffffffffff021916908373ffffffffffffffffffffffffffffffffffffffff16021790555061198f806100646000396000f3fe6080604052600436106100555760003560e01c806338e76a031461005a5780637acc0b20146100765780638aba5c81146100b95780638da5cb5b146100e2578063e0f6ef871461010d578063ff38ec0f14610138575b600080fd5b610074600480360381019061006f9190610ac9565b610161565b005b34801561008257600080fd5b5061009d60048036038101906100989190610ac9565b6103fc565b6040516100b09796959493929190610bb0565b60405180910390f35b3480156100c557600080fd5b506100e060048036038101906100db9190610d69565b6105f0565b005b3480156100ee57600080fd5b506100f76107a5565b6040516101049190610e06565b60405180910390f35b34801561011957600080fd5b506101226107c9565b60405161012f9190610e21565b60405180910390f35b34801561014457600080fd5b5061015f600480360381019061015a9190610e3c565b6107cf565b005b6000600260008381526020019081526020016000209050600081600001541180156101925750600154816000015411155b6101d1576040517f08c379a00000000000000000000000000000000000000000000000000000000081526004016101c890610f13565b60405180910390fd5b80600201543414610217576040517f08c379a000000000000000000000000000000000000000000000000000000000815260040161020e90610f7f565b60405180910390fd5b8060040160009054906101000a900460ff1615610269576040517f08c379a000000000000000000000000000000000000000000000000000000000815260040161026090610feb565b60405180910390fd5b60018160040160006101000a81548160ff021916908315150217905550806002600084815260200190815260200160002060008201548160000155600182018160010190816102b8919061122d565b5060028201548160020155600382018160030190816102d7919061122d565b506004820160009054906101000a900460ff168160040160006101000a81548160ff0219169083151502179055506004820160019054906101000a900460ff168160040160016101000a81548160ff02191690831515021790555060058201816005019081610346919061122d565b5090505060008054906101000a900473ffffffffffffffffffffffffffffffffffffffff1673ffffffffffffffffffffffffffffffffffffffff166108fc349081150290604051600060405180830381858888f193505050501580156103b0573d6000803e3d6000fd5b507f79558d0d7d4d900e2f15c4cc0a665f1acdbe415e44de900ecdd1e5bf12b56f4e828260010183600201543360016040516103f0959493929190611399565b60405180910390a15050565b60026020528060005260406000206000915090508060000154908060010180546104259061103a565b80601f01602080910402602001604051908101604052809291908181526020018280546104519061103a565b801561049e5780601f106104735761010080835404028352916020019161049e565b820191906000526020600020905b81548152906001019060200180831161048157829003601f168201915b5050505050908060020154908060030180546104b99061103a565b80601f01602080910402602001604051908101604052809291908181526020018280546104e59061103a565b80156105325780601f1061050757610100808354040283529160200191610532565b820191906000526020600020905b81548152906001019060200180831161051557829003601f168201915b5050505050908060040160009054906101000a900460ff16908060040160019054906101000a900460ff169080600501805461056d9061103a565b80601f01602080910402602001604051908101604052809291908181526020018280546105999061103a565b80156105e65780601f106105bb576101008083540402835291602001916105e6565b820191906000526020600020905b8154815290600101906020018083116105c957829003601f168201915b5050505050905087565b60008054906101000a900473ffffffffffffffffffffffffffffffffffffffff1673ffffffffffffffffffffffffffffffffffffffff163373ffffffffffffffffffffffffffffffffffffffff161461067e576040517f08c379a000000000000000000000000000000000000000000000000000000000815260040161067590611465565b60405180910390fd5b60006002600084815260200190815260200160002090508060040160009054906101000a900460ff166106e6576040517f08c379a00000000000000000000000000000000000000000000000000000000081526004016106dd906114f7565b60405180910390fd5b8060040160019054906101000a900460ff1615610738576040517f08c379a000000000000000000000000000000000000000000000000000000000815260040161072f90611563565b60405180910390fd5b60018160040160016101000a81548160ff021916908315150217905550818160050190816107669190611583565b507f93ab3b862ce2f90030f6e137a2dd9907ee94550e63fa63f7446ca20a381a81c08383604051610798929190611655565b60405180910390a1505050565b60008054906101000a900473ffffffffffffffffffffffffffffffffffffffff1681565b60015481565b60008054906101000a900473ffffffffffffffffffffffffffffffffffffffff1673ffffffffffffffffffffffffffffffffffffffff163373ffffffffffffffffffffffffffffffffffffffff161461085d576040517f08c379a0000000000000000000000000000000000000000000000000000000008152600401610854906116f7565b60405180910390fd5b60008351116108a1576040517f08c379a000000000000000000000000000000000000000000000000000000000815260040161089890611763565b60405180910390fd5b600082116108e4576040517f08c379a00000000000000000000000000000000000000000000000000000000081526004016108db906117f5565b60405180910390fd5b6000815111610928576040517f08c379a000000000000000000000000000000000000000000000000000000000815260040161091f90611861565b60405180910390fd5b6001600081548092919061093b906118b0565b91905055506040518060e001604052806001548152602001848152602001838152602001828152602001600015158152602001600015158152602001604051806020016040528060008152508152506002600060015481526020019081526020016000206000820151816000015560208201518160010190816109be9190611583565b506040820151816002015560608201518160030190816109de9190611583565b5060808201518160040160006101000a81548160ff02191690831515021790555060a08201518160040160016101000a81548160ff02191690831515021790555060c0820151816005019081610a349190611583565b509050507f6b4103e8ac45dd74e31558f966aca71ff546f6a82455eb5b630bb8299436a85e6001548484846000604051610a729594939291906118f8565b60405180910390a1505050565b6000604051905090565b600080fd5b600080fd5b6000819050919050565b610aa681610a93565b8114610ab157600080fd5b50565b600081359050610ac381610a9d565b92915050565b600060208284031215610adf57610ade610a89565b5b6000610aed84828501610ab4565b91505092915050565b610aff81610a93565b82525050565b600081519050919050565b600082825260208201905092915050565b60005b83811015610b3f578082015181840152602081019050610b24565b60008484015250505050565b6000601f19601f8301169050919050565b6000610b6782610b05565b610b718185610b10565b9350610b81818560208601610b21565b610b8a81610b4b565b840191505092915050565b60008115159050919050565b610baa81610b95565b82525050565b600060e082019050610bc5600083018a610af6565b8181036020830152610bd78189610b5c565b9050610be66040830188610af6565b8181036060830152610bf88187610b5c565b9050610c076080830186610ba1565b610c1460a0830185610ba1565b81810360c0830152610c268184610b5c565b905098975050505050505050565b600080fd5b600080fd5b7f4e487b7100000000000000000000000000000000000000000000000000000000600052604160045260246000fd5b610c7682610b4b565b810181811067ffffffffffffffff82111715610c9557610c94610c3e565b5b80604052505050565b6000610ca8610a7f565b9050610cb48282610c6d565b919050565b600067ffffffffffffffff821115610cd457610cd3610c3e565b5b610cdd82610b4b565b9050602081019050919050565b82818337600083830152505050565b6000610d0c610d0784610cb9565b610c9e565b905082815260208101848484011115610d2857610d27610c39565b5b610d33848285610cea565b509392505050565b600082601f830112610d5057610d4f610c34565b5b8135610d60848260208601610cf9565b91505092915050565b60008060408385031215610d8057610d7f610a89565b5b6000610d8e85828601610ab4565b925050602083013567ffffffffffffffff811115610daf57610dae610a8e565b5b610dbb85828601610d3b565b9150509250929050565b600073ffffffffffffffffffffffffffffffffffffffff82169050919050565b6000610df082610dc5565b9050919050565b610e0081610de5565b82525050565b6000602082019050610e1b6000830184610df7565b92915050565b6000602082019050610e366000830184610af6565b92915050565b600080600060608486031215610e5557610e54610a89565b5b600084013567ffffffffffffffff811115610e7357610e72610a8e565b5b610e7f86828701610d3b565b9350506020610e9086828701610ab4565b925050604084013567ffffffffffffffff811115610eb157610eb0610a8e565b5b610ebd86828701610d3b565b9150509250925092565b7f50726f6475637420646f6573206e6f7420657869737400000000000000000000600082015250565b6000610efd601683610b10565b9150610f0882610ec7565b602082019050919050565b60006020820190508181036000830152610f2c81610ef0565b9050919050565b7f496e636f727265637420616d6f756e742073656e740000000000000000000000600082015250565b6000610f69601583610b10565b9150610f7482610f33565b602082019050919050565b60006020820190508181036000830152610f9881610f5c565b9050919050565b7f50726f6475637420616c72656164792070757263686173656400000000000000600082015250565b6000610fd5601983610b10565b9150610fe082610f9f565b602082019050919050565b6000602082019050818103600083015261100481610fc8565b9050919050565b7f4e487b7100000000000000000000000000000000000000000000000000000000600052602260045260246000fd5b6000600282049050600182168061105257607f821691505b6020821081036110655761106461100b565b5b50919050565b60008154905061107a8161103a565b9050919050565b60008190508160005260206000209050919050565b60006020601f8301049050919050565b600082821b905092915050565b6000600883026110e37fffffffffffffffffffffffffffffffffffffffffffffffffffffffffffffffff826110a6565b6110ed86836110a6565b95508019841693508086168417925050509392505050565b6000819050919050565b600061112a61112561112084610a93565b611105565b610a93565b9050919050565b6000819050919050565b6111448361110f565b61115861115082611131565b8484546110b3565b825550505050565b600090565b61116d611160565b61117881848461113b565b505050565b5b8181101561119c57611191600082611165565b60018101905061117e565b5050565b601f8211156111e1576111b281611081565b6111bb84611096565b810160208510156111ca578190505b6111de6111d685611096565b83018261117d565b50505b505050565b600082821c905092915050565b6000611204600019846008026111e6565b1980831691505092915050565b600061121d83836111f3565b9150826002028217905092915050565b81810361123b575050611313565b6112448261106b565b67ffffffffffffffff81111561125d5761125c610c3e565b5b611267825461103a565b6112728282856111a0565b6000601f8311600181146112a1576000841561128f578287015490505b6112998582611211565b86555061130c565b601f1984166112af87611081565b96506112ba86611081565b60005b828110156112e2578489015482556001820191506001850194506020810190506112bd565b868310156112ff57848901546112fb601f8916826111f3565b8355505b6001600288020188555050505b5050505050505b565b600081546113228161103a565b61132c8186610b10565b94506001821660008114611347576001811461135d57611390565b60ff198316865281151560200286019350611390565b61136685611081565b60005b8381101561138857815481890152600182019150602081019050611369565b808801955050505b50505092915050565b600060a0820190506113ae6000830188610af6565b81810360208301526113c08187611315565b90506113cf6040830186610af6565b6113dc6060830185610df7565b6113e96080830184610ba1565b9695505050505050565b7f4f6e6c7920746865206f776e65722063616e206d61726b2070726f647563747360008201527f2061732073686970706564000000000000000000000000000000000000000000602082015250565b600061144f602b83610b10565b915061145a826113f3565b604082019050919050565b6000602082019050818103600083015261147e81611442565b9050919050565b7f50726f64756374206d75737420626520707572636861736564206265666f726560008201527f2069742063616e20626520736869707065640000000000000000000000000000602082015250565b60006114e1603283610b10565b91506114ec82611485565b604082019050919050565b60006020820190508181036000830152611510816114d4565b9050919050565b7f50726f6475637420616c72656164792073686970706564000000000000000000600082015250565b600061154d601783610b10565b915061155882611517565b602082019050919050565b6000602082019050818103600083015261157c81611540565b9050919050565b61158c82610b05565b67ffffffffffffffff8111156115a5576115a4610c3e565b5b6115af825461103a565b6115ba8282856111a0565b600060209050601f8311600181146115ed57600084156115db578287015190505b6115e58582611211565b86555061164d565b601f1984166115fb86611081565b60005b82811015611623578489015182556001820191506020850194506020810190506115fe565b86831015611640578489015161163c601f8916826111f3565b8355505b6001600288020188555050505b505050505050565b600060408201905061166a6000830185610af6565b818103602083015261167c8184610b5c565b90509392505050565b7f4f6e6c7920746865206f776e65722063616e206372656174652070726f64756360008201527f7473000000000000000000000000000000000000000000000000000000000000602082015250565b60006116e1602283610b10565b91506116ec82611685565b604082019050919050565b60006020820190508181036000830152611710816116d4565b9050919050565b7f50726f64756374206e616d652069732072657175697265640000000000000000600082015250565b600061174d601883610b10565b915061175882611717565b602082019050919050565b6000602082019050818103600083015261177c81611740565b9050919050565b7f50726f64756374207072696365206d757374206265206772656174657220746860008201527f616e207a65726f00000000000000000000000000000000000000000000000000602082015250565b60006117df602783610b10565b91506117ea82611783565b604082019050919050565b6000602082019050818103600083015261180e816117d2565b9050919050565b7f50726f6475637420434944206973207265717569726564000000000000000000600082015250565b600061184b601783610b10565b915061185682611815565b602082019050919050565b6000602082019050818103600083015261187a8161183e565b9050919050565b7f4e487b7100000000000000000000000000000000000000000000000000000000600052601160045260246000fd5b60006118bb82610a93565b91507fffffffffffffffffffffffffffffffffffffffffffffffffffffffffffffffff82036118ed576118ec611881565b5b600182019050919050565b600060a08201905061190d6000830188610af6565b818103602083015261191f8187610b5c565b905061192e6040830186610af6565b81810360608301526119408185610b5c565b905061194f6080830184610ba1565b969550505050505056fea264697066735822122007b8263c3259231354274a5a8fa9300300d4d039d91e5d0b987022e7eed0672464736f6c634300081c0033",
  "linkReferences": {},
  "deployedLinkReferences": {}
}